{
  "_format": "hh-sol-artifact-1",
  "contractName": "Counter",
  "sourceName": "contracts/Counter.sol",
  "abi": [
    {
      "anonymous": false,
      "inputs": [
        {
          "indexed": false,
          "internalType": "int256",
          "name": "newCount",
          "type": "int256"
        }
      ],
      "name": "CounterUpdated",
      "type": "event"
    },
    {
      "inputs": [],
      "name": "decrement",
      "outputs": [],
      "stateMutability": "nonpayable",
      "type": "function"
    },
    {
      "inputs": [],
      "name": "getCount",
      "outputs": [
        {
          "internalType": "int256",
          "name": "",
          "type": "int256"
        }
      ],
      "stateMutability": "view",
      "type": "function"
    },
    {
      "inputs": [],
      "name": "increment",
      "outputs": [],
      "stateMutability": "nonpayable",
      "type": "function"
    }
  ],
  "bytecode": "0x608060405234801561001057600080fd5b50610249806100206000396000f3fe608060405234801561001057600080fd5b50600436106100415760003560e01c80632baeceb714610046578063a87d942c14610050578063d09de08a1461006e575b600080fd5b61004e610078565b005b6100586100cc565b6040516100659190610142565b60405180910390f35b6100766100d5565b005b600160008082825461008a919061018c565b925050819055507fb5ad271ddbf23445dc5f66a275faf9b2ca18e52f77a8d91181b3db57843102f06000546040516100c29190610142565b60405180910390a1565b60008054905090565b60016000808282546100e791906101cf565b925050819055507fb5ad271ddbf23445dc5f66a275faf9b2ca18e52f77a8d91181b3db57843102f060005460405161011f9190610142565b60405180910390a1565b6000819050919050565b61013c81610129565b82525050565b60006020820190506101576000830184610133565b92915050565b7f4e487b7100000000000000000000000000000000000000000000000000000000600052601160045260246000fd5b600061019782610129565b91506101a283610129565b92508282039050818112600084121682821360008512151617156101c9576101c861015d565b5b92915050565b60006101da82610129565b91506101e583610129565b92508282019050828112156000831216838212600084121516171561020d5761020c61015d565b5b9291505056fea2646970667358221220ce97ddb5988774fc9aa85f726b890c6bb4303b00e6506df7432849d5acf3850564736f6c63430008180033",
  "linkReferences": {},
  "deployedLinkReferences": {}
}